:100000000C9472000C9491000C9491000C9491004B
:100010000C9491000C9491000C9491000C9491001C
:100020000C9491000C9491000C9491000C9491000C
:100030000C9491000C9491000C9491000C949100FC
:100040000C9491000C9491000C9491000C949100EC
:100050000C9491000C9491000C9491000C949F02CC
:100060000C9491000C94C6040C9491000C94C5055A
:100070000C9491000C9491000C9491000C949100BC
:100080000C9491000C9491000C9491000C949100AC
:100090000C940B050C9491000C9405060C949100A3
:1000A0000C9491000C9491000C9491000C9491008C
:1000B0000C9491000C9491000C9491000C9491007C
:1000C0000C9491000C9491000C9491000C944905AF
:1000D0000C9491000C9445060C9487050C949100A7
:1000E0000C94850611241FBECFEFD1E2DEBFCDBF39
:1000F00012E0A0E0B2E0E0EAF3E100E00BBF02C0F2
:1001000007900D92A030B107D9F717E1A0E0B2E057
:1001100001C01D92A43EB107E1F70E94BD000C94FE
:10012000CF090C94000012B811B815B814B818B85B
:100130008FEF87B91BB81AB81EB81DB811BA10BA1C
:1001400014BA13BA10920201109201011092050123
:1001500010920401109208011092070110920B01F5
:1001600010920A0114BC84E085BD89EE86BD17BCDF
:1001700018BC81E080936E0008950F931F93CF9376
:10018000DF930E9493000E946A040E94D80260E3F9
:1001900073E083E490E10E94AE0862E570E180E3E1
:1001A00097E00E94AE0888E190E028E00FB6F8944E
:1001B000A895809360000FBE2093600083B7817F75
:1001C00083BF109250101092410B1092400B10926E
:1001D0003F0B10923E0B1092420C81E080933E0741
:1001E00078948091521481608093521480915214BB
:1001F00082608093521480915214846080935214D0
:1002000080915214886080935214809152148061BE
:100210008093521480915214806280935214809182
:100220005214806480935214809152148068809399
:1002300052140E94C506882391F10E94D10688239A
:1002400009F480C00E94DD06882309F4A8C00E943A
:10025000E906882309F4E7C08091511080FDE9CFB9
:1002600060913E0B70913F0B6115710509F041C122
:100270006091400B7091410B6115710509F013C13C
:1002800082E390E090933D0780933C07809151106A
:100290008160809351100E94C506882371F60E94E8
:1002A0003107682F83E490E10E94B708823029F675
:1002B0008091451090914610892BB9F0C0E0D0E0B4
:1002C000E0E0F0E08091431090914410E80FF91FB6
:1002D00080810E940908FE013196EF01809145104E
:1002E00090914610E817F90768F3809147109091B4
:1002F000481085509C4B09F0A0CF80914B1088236B
:1003000009F49BCFC0E0D0E0E0914910F0914A1091
:10031000EC0FFD1F80810E944008E0914910F09190
:100320004A10EC0FFD1F80810E9477082196809172
:100330004B109927C817D9073CF30E94D106882390
:1003400009F080CF0E945A07682F80E397E00E944F
:10035000B708823009F076CF809132079091330749
:10036000892B09F46FCFC0E0D0E0E0E0F0E08091AD
:10037000300790913107E80FF91F80810E94D20762
:10038000FE013196EF018091320790913307E81713
:10039000F90768F30E94DD06882309F058CF009121
:1003A0003E0B10913F0B0F5F1F4F0E9482070E5BA9
:1003B000134FF801808360913E0B70913F0B6F5F8C
:1003C0007F4F70933F0B60933E0B6436710508F4CA
:1003D0003ECF6F5F0FE410E122E43BE046E05CEBD0
:1003E00082E49CE00E94810980914F10882391F063
:1003F00000E010E0C2E4DBE088810E94D20789912E
:100400000E9409080F5F1F4F80914F10992708170E
:10041000190794F310923F0B10923E0B0E94E906CD
:10042000882309F019CF0091400B1091410B0F5F09
:100430001F4F0E94AA07025C184FF8018083609149
:10044000400B7091410B6F5F7F4F7093410B609336
:10045000400B6436710508F4FFCE6F5F0FE410E1C6
:1004600022E43BE046E05CEB8EE397E00E948109EA
:1004700080914F10882391F000E010E0C2E4DBE0AF
:1004800088810E94D20789910E9409080F5F1F4F3F
:1004900080914F1099270817190794F31092410B78
:1004A0001092400BD9CE6F5F0FE410E122E43BE0E5
:1004B00046E05CEB8EE397E00E94810980914F104B
:1004C000882391F000E010E0C2E4DBE088810E9424
:1004D000D20789910E9409080F5F1F4F80914F102A
:1004E00099270817190794F31092410B1092400BAB
:1004F000C7CE6F5F0FE410E122E43BE046E05CEB27
:1005000082E49CE00E94810980914F10882391F041
:1005100000E010E0C2E4DBE088810E94D20789910C
:100520000E9409080F5F1F4F80914F1099270817ED
:10053000190794F310923F0B10923E0B99CE1F9225
:100540000F920FB60F9211242F933F934F935F9307
:100550006F937F938F939F93AF93BF93EF93FF938B
:1005600089EE86BDA8952091511020FF0EC0809184
:100570003C0790913D07019790933D0780933C077E
:10058000892B19F42E7F209351100E94DD02FF91D8
:10059000EF91BF91AF919F918F917F916F915F91FB
:1005A0004F913F912F910F900FBE0F901F90189574
:1005B000109253141092521408958091531480FF96
:1005C00000C1809154149091551401979093551443
:1005D00080935414892B09F435C18091531481FF01
:1005E000DFC080915614909157140197909357143F
:1005F00080935614892B09F41DC18091531482FFF6
:10060000BEC0809158149091591401979093591439
:1006100080935814892B09F405C18091531483FFEA
:100620009DC080915A1490915B14019790935B1434
:1006300080935A14892B09F4EDC08091531484FFE0
:100640007CC080915C1490915D14019790935D142F
:1006500080935C14892B09F4D5C08091531485FFD5
:100660005BC080915E1490915F14019790935F142A
:1006700080935E14892B09F4BDC08091531486FFCA
:1006800021C080916014909161140197909361143E
:1006900080936014892B09F4A5C08091531487FDC1
:1006A00025C08091521487FF12C180915314806835
:1006B00080935314409A82E390E090936314809364
:1006C000621405C18091521486FFE7CF80915314C4
:1006D000806480935314419A82E390E09093611474
:1006E000809360148091531487FFDBCF8091621454
:1006F0009091631401979093631480936214892BF3
:1007000009F0E5C0409BDEC040988BE490E09093F8
:10071000631480936214DBC08091521485FFADCFC7
:1007200080915314806280935314429A82E390E044
:1007300090935F1480935E14A0CF8091521484FF35
:100740008CCF80915314806180935314439A82E339
:1007500090E090935D1480935C147FCF809152144D
:1007600083FF6BCF80915314886080935314449A15
:1007700082E390E090935B1480935A145ECF809153
:10078000521482FF4ACF8091531484608093531493
:10079000459A82E390E090935914809358143DCF8A
:1007A0008091521481FF29CF8091531482608093ED
:1007B0005314469A82E390E0909357148093561412
:1007C0001CCF8091521480FF08CF80915314816018
:1007D00080935314479A82E390E09093551480934A
:1007E0005414FBCE41994EC0809153148F7B80935B
:1007F000531453CF429956C0809153148F7D8093E8
:1008000053143BCF439946C0809153148F7E8093FD
:10081000531423CF449926C080915314877F80932B
:1008200053140BCF459916C0809153148B7F80933E
:100830005314F3CE46991EC0809153148D7F80933C
:100840005314DBCE479936C0809153148E7F80932A
:100850005314C3CE45988BE490E090935914809341
:100860005814DBCE44988BE490E090935B14809313
:100870005A14E3CE46988BE490E0909357148093FB
:100880005614BBCE41988BE490E090936114809312
:10089000601403CF43988BE490E090935D148093B1
:1008A0005C14DBCE42988BE490E090935F148093CD
:1008B0005E14E3CE47988BE490E0909355148093B8
:1008C00054148BCE809153148F77809353141092CD
:1008D000521408950F931F93CF93DF9348E052E093
:1008E00020E032E088E192E0C0E1D2E0E8E2F2E02C
:1008F00000E212E0DA011D921D92AD01D9011D92B4
:100900001D929D01DC011D921D92CD01199219923B
:10091000D80111961C921E9212968D01118210829E
:100920003296B2E0E033FB0729F786E290E090933D
:10093000C5008093C4001092C00038ED3093C10010
:1009400026E02093C2009093CD008093CC001092BB
:10095000C8003093C9002093CA009093D5008093BB
:10096000D4001092D0003093D1002093D200909305
:10097000350180933401109230013093310120937E
:100980003201DF91CF911F910F9108951F920F9225
:100990000FB60F9211242F938F939F93EF93FF9392
:1009A000809152148160809352148091C0002091F4
:1009B000C6008C7131F580912002909121028F3F09
:1009C000910509F0F0F48091080290910902FC0170
:1009D000EC51F94E2083019690930902809308020E
:1009E0008F3F910529F020F0109209021092080221
:1009F0008091200290912102019690932102809390
:100A00002002FF91EF919F918F912F910F900FBE38
:100A10000F901F9018951F920F920FB60F921124EE
:100A20002F938F939F93EF93FF9380915214846041
:100A3000809352148091C8002091CE008C71F9F4FB
:100A400080910A0290910B02FC01EC59FA4E20832E
:100A5000019690930B0280930A028038910550F41E
:100A60008091220290912302019690932302809319
:100A7000220205C010920B0210920A02F1CFFF91E0
:100A8000EF919F918F912F910F900FBE0F901F901C
:100A900018951F920F920FB60F9211242F938F93D8
:100AA0009F93EF93FF93809152148061809352142F
:100AB0008091D0002091D6008C71F9F480910C02C5
:100AC00090910D02FC01EC55F94E20830196909314
:100AD0000D0280930C028034910550F48091240221
:100AE000909125020196909325028093240205C0DF
:100AF00010920D0210920C02F1CFFF91EF919F9195
:100B00008F912F910F900FBE0F901F9018951F92ED
:100B10000F920FB60F9211242F938F939F93EF9301
:100B2000FF9380915214806480935214809130011D
:100B3000209136018C71F9F480910E0290910F0290
:100B4000FC01EC59F94E2083019690930F0280939B
:100B50000E028034910550F4809126029091270274
:100B60000196909327028093260205C010920F02EF
:100B700010920E02F1CFFF91EF919F918F912F91E3
:100B80000F900FBE0F901F9018951F920F920FB6E7
:100B90000F9211242F938F939F93EF93FF93809144
:100BA00052148260809352148091280290912902FD
:100BB000892B09F18091100290911102FC01EC59EE
:100BC000FB4E20812093C6000196909311028093E2
:100BD00010028034910550F48091280290912902EE
:100BE0000197909329028093280205C01092110268
:100BF00010921002F1CFFF91EF919F918F912F9161
:100C00000F900FBE0F901F9018951F920F920FB666
:100C10000F9211242F938F939F93EF93FF938091C3
:100C2000521488608093521480912A0290912B0272
:100C3000892B09F18091120290911302FC01EC5D65
:100C4000FA4E20812093CE00019690931302809358
:100C500012028034910550F480912A0290912B0267
:100C6000019790932B0280932A0205C010921302E1
:100C700010921202F1CFFF91EF919F918F912F91DE
:100C80000F900FBE0F901F9018951F920F920FB6E6
:100C90000F9211242F938F939F93EF93FF93809143
:100CA000521480628093521480912C0290912D02F4
:100CB000892B09F18091140290911502FC01EC51ED
:100CC000FA4E20812093D6000196909315028093CE
:100CD00014028038910550F480912C0290912D02DD
:100CE000019790932D0280932C0205C0109215025B
:100CF00010921402F1CFFF91EF919F918F912F915C
:100D00000F900FBE0F901F9018951F920F920FB665
:100D10000F9211242F938F939F93EF93FF938091C2
:100D2000521480688093521480912E0290912F0269
:100D3000892B09F18091160290911702FC01EC5564
:100D4000FB4E2081209336010196909317028093E9
:100D500016028038910550F480912E0290912F0256
:100D6000019790932F0280932E0205C010921702D4
:100D700010921602F1CFFF91EF919F918F912F91D9
:100D80000F900FBE0F901F901895809120029091A8
:100D9000210220E030E0892B11F421E030E0C9018C
:100DA0000895809122029091230220E030E0892B67
:100DB00011F421E030E0C90108958091240290915E
:100DC000250220E030E0892B11F421E030E0C90158
:100DD0000895809126029091270220E030E0892B2F
:100DE00011F421E030E0C9010895F894109209024D
:100DF0001092080210920102109200021092210239
:100E00001092200278940895F89410920B02109298
:100E10000A02109203021092020210922302109210
:100E2000220278940895F89410920D0210920C0208
:100E300010920502109204021092250210922402D0
:100E400078940895F89410920F0210920E02109266
:100E5000070210920602109227021092260278943E
:100E600008958091200290912102892BD1F3F8946A
:100E70008091000290910102FC01EC51F94EE08159
:100E8000019690930102809300028F3F910529F013
:100E900020F01092010210920002809120029091A5
:100EA00021020197909321028093200278948E2F43
:100EB000992708958091220290912302892BD1F3E2
:100EC000F8948091020290910302FC01EC59FA4ED1
:100ED000E08101969093030280930202803891058D
:100EE00020F010920302109202028091220290914F
:100EF00023020197909323028093220278948E2FED
:100F0000992708958091240290912502892BD1F38D
:100F1000F8948091040290910502FC01EC55F94E81
:100F2000E08101969093050280930402803491053C
:100F300020F01092050210920402809124029091F8
:100F400025020197909325028093240278948E2F96
:100F5000992708958091260290912702892BD1F339
:100F6000F8948091060290910702FC01EC59F94E29
:100F7000E0810196909307028093060280349105E8
:100F800020F01092070210920602809126029091A2
:100F900027020197909327028093260278948E2F40
:100FA00099270895282F8091280290912902803452
:100FB0009105C8F7F8948091280290912902892B15
:100FC00039F48091C00085FF03C02093C6001FC084
:100FD0008091180290911902FC01EC59FB4E20837C
:100FE000019690931902809318028034910550F471
:100FF0008091280290912902019690932902809372
:10100000280205C01092190210921802F1CF7894AC
:101010000895282F80912A0290912B028034910507
:10102000C8F7F89480912A0290912B02892B39F409
:101030008091C80085FF03C02093CE001FC080911F
:101040001A0290911B02FC01EC5DFA4E208301967E
:1010500090931B0280931A028034910550F4809182
:101060002A0290912B02019690932B0280932A02E0
:1010700005C010921B0210921A02F1CF78940895C5
:10108000282F80912C0290912D0280389105C8F76D
:10109000F89480912C0290912D02892B39F4809143
:1010A000D00085FF03C02093D6001FC080911C0292
:1010B00090911D02FC01EC51FA4E20830196909311
:1010C0001D0280931C028038910550F480912C02FF
:1010D00090912D02019690932D0280932C0205C0D1
:1010E00010921D0210921C02F1CF78940895282FBF
:1010F00080912E0290912F0280389105C8F7F894C4
:1011000080912E0290912F02892B39F48091300129
:1011100085FF03C0209336011FC080911E0290916D
:101120001F02FC01EC55FB4E2083019690931F0299
:1011300080931E028038910550F480912E02909188
:101140002F02019690932F0280932E0205C01092D9
:101150001F0210921E02F1CF78940895FC011186AF
:10116000718360836C5F7F4F778366830895CF932D
:10117000DF93DC01EC018985823021F1833098F026
:10118000833009F480C0843009F45DC0ED01198614
:10119000FD01828193818F3F910590F1ED011986C8
:1011A00081E090E0ABC0882371F5662309F481C02B
:1011B000623009F492C0FD0111861382128281E02F
:1011C00090E09CC0FD0182819381ED91FC9111978B
:1011D000E80FF91F60830196ED019B838A838B855D
:1011E000860F8B878A8581508A87882389F689852F
:1011F0008F5F8987FD01828193818F3F910570F612
:1012000080E090E07BC0813009F6ED018A819B810E
:10121000ED91FC911197E80FF91F608301969B8374
:101220008A838B85860F8B878A8581508A8788235E
:1012300009F0AECFED91FC91119783818A87898562
:101240008F5F8987A5CFED018A819B81ED91FC910C
:101250001197E80FF91F608301969B838A8363309F
:1012600019F5ED91FC9181819927982F882722818A
:101270003327822B932B9D838C83838188871986C8
:1012800082E090E03BC0FD0182819381ED91FC9171
:101290001197E80FF91F60830196ED019B838A8304
:1012A0008B85681709F4A3CFFD01118681E090E0DA
:1012B00025C0FD01158214820680F781E02D108281
:1012C00081E0ED018887ED91FC91108281E090E052
:1012D0009B838A8382E090E011C083E0FD018287D6
:1012E0001386ED91FC911197608381E090E0ED0110
:1012F0009B838A8389858F5F89874ACFDF91CF91CE
:101300000895EF92FF920F931F93CF93DF937C0189
:10131000E9019801693FD0F54115510581F1FE01C0
:1013200082E08193852F99278983DF01119641837C
:10133000FD016183129699818A81980F8B81980FA4
:1013400077271616170664F4F7016C0F7D1F6C5F84
:101350007F4F80818D938191980FA617B707C9F7AA
:10136000FD019193AF0183E0FD0181834F5F5F4FEA
:10137000E42FEC1BD901EC9381E090E009C01882C6
:1013800081E0D8018C9381E090E002C080E090E0A1
:10139000DF91CF911F910F91FF90EF900895FFCFB4
:00000001FF
